{
  "_format": "hh-sol-artifact-1",
  "contractName": "MonoRewardsDistributor",
  "sourceName": "contracts/utilities/MonoRewardsDistributor.sol",
  "abi": [
    {
      "inputs": [
        {
          "internalType": "address",
          "name": "_core",
          "type": "address"
        },
        {
          "internalType": "address",
          "name": "_stakingContract",
          "type": "address"
        },
        {
          "internalType": "uint256",
          "name": "_duration",
          "type": "uint256"
        },
        {
          "internalType": "uint256",
          "name": "_frequency",
          "type": "uint256"
        },
        {
          "internalType": "uint256",
          "name": "_incentiveAmount",
          "type": "uint256"
        }
      ],
      "stateMutability": "nonpayable",
      "type": "constructor"
    },
    {
      "anonymous": false,
      "inputs": [
        {
          "indexed": true,
          "internalType": "address",
          "name": "_core",
          "type": "address"
        }
      ],
      "name": "CoreUpdate",
      "type": "event"
    },
    {
      "anonymous": false,
      "inputs": [
        {
          "indexed": true,
          "internalType": "address",
          "name": "_caller",
          "type": "address"
        },
        {
          "indexed": false,
          "internalType": "uint256",
          "name": "_amount",
          "type": "uint256"
        }
      ],
      "name": "Drip",
      "type": "event"
    },
    {
      "anonymous": false,
      "inputs": [
        {
          "indexed": false,
          "internalType": "uint256",
          "name": "_duration",
          "type": "uint256"
        }
      ],
      "name": "DurationUpdate",
      "type": "event"
    },
    {
      "anonymous": false,
      "inputs": [
        {
          "indexed": false,
          "internalType": "uint256",
          "name": "_frequency",
          "type": "uint256"
        }
      ],
      "name": "FrequencyUpdate",
      "type": "event"
    },
    {
      "anonymous": false,
      "inputs": [
        {
          "indexed": false,
          "internalType": "uint256",
          "name": "_incentiveAmount",
          "type": "uint256"
        }
      ],
      "name": "IncentiveUpdate",
      "type": "event"
    },
    {
      "anonymous": false,
      "inputs": [
        {
          "indexed": false,
          "internalType": "uint256",
          "name": "_amount",
          "type": "uint256"
        }
      ],
      "name": "MonoWithdraw",
      "type": "event"
    },
    {
      "anonymous": false,
      "inputs": [
        {
          "indexed": false,
          "internalType": "address",
          "name": "account",
          "type": "address"
        }
      ],
      "name": "Paused",
      "type": "event"
    },
    {
      "anonymous": false,
      "inputs": [
        {
          "indexed": false,
          "internalType": "address",
          "name": "_stakingContract",
          "type": "address"
        }
      ],
      "name": "StakingContractUpdate",
      "type": "event"
    },
    {
      "anonymous": false,
      "inputs": [
        {
          "indexed": false,
          "internalType": "uint256",
          "name": "_startTime",
          "type": "uint256"
        }
      ],
      "name": "TimerReset",
      "type": "event"
    },
    {
      "anonymous": false,
      "inputs": [
        {
          "indexed": false,
          "internalType": "address",
          "name": "account",
          "type": "address"
        }
      ],
      "name": "Unpaused",
      "type": "event"
    },
    {
      "inputs": [],
      "name": "core",
      "outputs": [
        {
          "internalType": "contract ICore",
          "name": "",
          "type": "address"
        }
      ],
      "stateMutability": "view",
      "type": "function"
    },
    {
      "inputs": [],
      "name": "distributedRewards",
      "outputs": [
        {
          "internalType": "uint256",
          "name": "",
          "type": "uint256"
        }
      ],
      "stateMutability": "view",
      "type": "function"
    },
    {
      "inputs": [],
      "name": "drip",
      "outputs": [
        {
          "internalType": "uint256",
          "name": "",
          "type": "uint256"
        }
      ],
      "stateMutability": "nonpayable",
      "type": "function"
    },
    {
      "inputs": [],
      "name": "dripFrequency",
      "outputs": [
        {
          "internalType": "uint256",
          "name": "",
          "type": "uint256"
        }
      ],
      "stateMutability": "view",
      "type": "function"
    },
    {
      "inputs": [],
      "name": "duration",
      "outputs": [
        {
          "internalType": "uint256",
          "name": "",
          "type": "uint256"
        }
      ],
      "stateMutability": "view",
      "type": "function"
    },
    {
      "inputs": [],
      "name": "fei",
      "outputs": [
        {
          "internalType": "contract IFei",
          "name": "",
          "type": "address"
        }
      ],
      "stateMutability": "view",
      "type": "function"
    },
    {
      "inputs": [],
      "name": "feiBalance",
      "outputs": [
        {
          "internalType": "uint256",
          "name": "",
          "type": "uint256"
        }
      ],
      "stateMutability": "view",
      "type": "function"
    },
    {
      "inputs": [
        {
          "internalType": "address",
          "name": "tokenAddress",
          "type": "address"
        },
        {
          "internalType": "address",
          "name": "to",
          "type": "address"
        },
        {
          "internalType": "uint256",
          "name": "amount",
          "type": "uint256"
        }
      ],
      "name": "governorRecover",
      "outputs": [],
      "stateMutability": "nonpayable",
      "type": "function"
    },
    {
      "inputs": [
        {
          "internalType": "uint256",
          "name": "amount",
          "type": "uint256"
        }
      ],
      "name": "governorWithdrawMono",
      "outputs": [],
      "stateMutability": "nonpayable",
      "type": "function"
    },
    {
      "inputs": [],
      "name": "incentiveAmount",
      "outputs": [
        {
          "internalType": "uint256",
          "name": "",
          "type": "uint256"
        }
      ],
      "stateMutability": "view",
      "type": "function"
    },
    {
      "inputs": [],
      "name": "isDripAvailable",
      "outputs": [
        {
          "internalType": "bool",
          "name": "",
          "type": "bool"
        }
      ],
      "stateMutability": "view",
      "type": "function"
    },
    {
      "inputs": [],
      "name": "isTimeEnded",
      "outputs": [
        {
          "internalType": "bool",
          "name": "",
          "type": "bool"
        }
      ],
      "stateMutability": "view",
      "type": "function"
    },
    {
      "inputs": [],
      "name": "isTimeStarted",
      "outputs": [
        {
          "internalType": "bool",
          "name": "",
          "type": "bool"
        }
      ],
      "stateMutability": "view",
      "type": "function"
    },
    {
      "inputs": [],
      "name": "lastDistributionTime",
      "outputs": [
        {
          "internalType": "uint256",
          "name": "",
          "type": "uint256"
        }
      ],
      "stateMutability": "view",
      "type": "function"
    },
    {
      "inputs": [],
      "name": "mono",
      "outputs": [
        {
          "internalType": "contract IERC20",
          "name": "",
          "type": "address"
        }
      ],
      "stateMutability": "view",
      "type": "function"
    },
    {
      "inputs": [],
      "name": "monoBalance",
      "outputs": [
        {
          "internalType": "uint256",
          "name": "",
          "type": "uint256"
        }
      ],
      "stateMutability": "view",
      "type": "function"
    },
    {
      "inputs": [],
      "name": "nextDripAvailable",
      "outputs": [
        {
          "internalType": "uint256",
          "name": "",
          "type": "uint256"
        }
      ],
      "stateMutability": "view",
      "type": "function"
    },
    {
      "inputs": [],
      "name": "pause",
      "outputs": [],
      "stateMutability": "nonpayable",
      "type": "function"
    },
    {
      "inputs": [],
      "name": "paused",
      "outputs": [
        {
          "internalType": "bool",
          "name": "",
          "type": "bool"
        }
      ],
      "stateMutability": "view",
      "type": "function"
    },
    {
      "inputs": [],
      "name": "releasedReward",
      "outputs": [
        {
          "internalType": "uint256",
          "name": "",
          "type": "uint256"
        }
      ],
      "stateMutability": "view",
      "type": "function"
    },
    {
      "inputs": [],
      "name": "remainingTime",
      "outputs": [
        {
          "internalType": "uint256",
          "name": "",
          "type": "uint256"
        }
      ],
      "stateMutability": "view",
      "type": "function"
    },
    {
      "inputs": [],
      "name": "rewardBalance",
      "outputs": [
        {
          "internalType": "uint256",
          "name": "",
          "type": "uint256"
        }
      ],
      "stateMutability": "view",
      "type": "function"
    },
    {
      "inputs": [
        {
          "internalType": "address",
          "name": "core",
          "type": "address"
        }
      ],
      "name": "setCore",
      "outputs": [],
      "stateMutability": "nonpayable",
      "type": "function"
    },
    {
      "inputs": [
        {
          "internalType": "uint256",
          "name": "_frequency",
          "type": "uint256"
        }
      ],
      "name": "setDripFrequency",
      "outputs": [],
      "stateMutability": "nonpayable",
      "type": "function"
    },
    {
      "inputs": [
        {
          "internalType": "uint256",
          "name": "_incentiveAmount",
          "type": "uint256"
        }
      ],
      "name": "setIncentiveAmount",
      "outputs": [],
      "stateMutability": "nonpayable",
      "type": "function"
    },
    {
      "inputs": [
        {
          "internalType": "address",
          "name": "_stakingContract",
          "type": "address"
        }
      ],
      "name": "setStakingContract",
      "outputs": [],
      "stateMutability": "nonpayable",
      "type": "function"
    },
    {
      "inputs": [],
      "name": "stakingContract",
      "outputs": [
        {
          "internalType": "contract IStakingRewards",
          "name": "",
          "type": "address"
        }
      ],
      "stateMutability": "view",
      "type": "function"
    },
    {
      "inputs": [],
      "name": "startTime",
      "outputs": [
        {
          "internalType": "uint256",
          "name": "",
          "type": "uint256"
        }
      ],
      "stateMutability": "view",
      "type": "function"
    },
    {
      "inputs": [],
      "name": "timeSinceStart",
      "outputs": [
        {
          "internalType": "uint256",
          "name": "",
          "type": "uint256"
        }
      ],
      "stateMutability": "view",
      "type": "function"
    },
    {
      "inputs": [],
      "name": "totalReward",
      "outputs": [
        {
          "internalType": "uint256",
          "name": "",
          "type": "uint256"
        }
      ],
      "stateMutability": "view",
      "type": "function"
    },
    {
      "inputs": [],
      "name": "unpause",
      "outputs": [],
      "stateMutability": "nonpayable",
      "type": "function"
    },
    {
      "inputs": [],
      "name": "unreleasedReward",
      "outputs": [
        {
          "internalType": "uint256",
          "name": "",
          "type": "uint256"
        }
      ],
      "stateMutability": "view",
      "type": "function"
    }
  ],
  "bytecode": "0x60806040523480156200001157600080fd5b5060405162002e2f38038062002e2f833981810160405281019062000037919062000211565b828560008060006101000a81548160ff02191690831515021790555080600060016101000a81548173ffffffffffffffffffffffffffffffffffffffff021916908373ffffffffffffffffffffffffffffffffffffffff16021790555050620000a6816200015e60201b60201c565b5081831015620000ed576040517f08c379a0000000000000000000000000000000000000000000000000000000008152600401620000e4906200030c565b60405180910390fd5b83600460006101000a81548173ffffffffffffffffffffffffffffffffffffffff021916908373ffffffffffffffffffffffffffffffffffffffff16021790555081600681905550806007819055504260058190555062000153620001a160201b60201c565b5050505050620003ce565b806002819055507fef01a748b5b8a4f1d48b88861f6d361d7391ad2bbed27ff97d762889ca80d737816040516200019691906200032e565b60405180910390a150565b426001819055507fd1dbb2ce8081405078443ef34dae718285114121a39370b14ef01b9d2b0a208342604051620001d991906200032e565b60405180910390a1565b600081519050620001f4816200039a565b92915050565b6000815190506200020b81620003b4565b92915050565b600080600080600060a086880312156200022a57600080fd5b60006200023a88828901620001e3565b95505060206200024d88828901620001e3565b94505060406200026088828901620001fa565b93505060606200027388828901620001fa565b92505060806200028688828901620001fa565b9150509295509295909350565b6000620002a26032836200034b565b91507f4d6f6e6f526577617264734469737472696275746f723a206672657175656e6360008301527f792065786365656473206475726174696f6e00000000000000000000000000006020830152604082019050919050565b620003068162000390565b82525050565b60006020820190508181036000830152620003278162000293565b9050919050565b6000602082019050620003456000830184620002fb565b92915050565b600082825260208201905092915050565b6000620003698262000370565b9050919050565b600073ffffffffffffffffffffffffffffffffffffffff82169050919050565b6000819050919050565b620003a5816200035c565b8114620003b157600080fd5b50565b620003bf8162000390565b8114620003cb57600080fd5b50565b612a5180620003de6000396000f3fe608060405234801561001057600080fd5b50600436106101ef5760003560e01c80639dd373b91161010f578063be72d19d116100a2578063ee99205c11610071578063ee99205c1461050a578063f2f4eb2614610528578063f3e14f1e14610546578063f8799a6314610564576101ef565b8063be72d19d14610494578063cae5d73b146104b2578063d29caa0b146104d0578063de72f107146104ec576101ef565b8063ae951b2e116100de578063ae951b2e1461041c578063b49058971461043a578063b5312da214610458578063b617c3bb14610476576101ef565b80639dd373b9146103a65780639f678cca146103c2578063aa5c3ab4146103e0578063acc4bd08146103fe576101ef565b806375b17350116101875780638456cb59116101565780638456cb59146103445780638edd0eba1461034e5780639a9ba4da1461036a5780639aa7d5f814610388576101ef565b806375b17350146102ce57806378e97925146102ec578063800096301461030a5780638043c10c14610326576101ef565b80635c975abb116101c35780635c975abb1461025657806367fc6dea146102745780636bf64da214610292578063750142e6146102b0576101ef565b8062d89b33146101f45780630fb5a6b4146102125780632691c8e1146102305780633f4ba83a1461024c575b600080fd5b6101fc610580565b6040516102099190612612565b60405180910390f35b61021a61058d565b60405161022791906127fb565b60405180910390f35b61024a60048036038101906102459190612071565b610593565b005b610254610713565b005b61025e6108b9565b60405161026b9190612612565b60405180910390f35b61027c6108cf565b60405161028991906127fb565b60405180910390f35b61029a61090d565b6040516102a791906127fb565b60405180910390f35b6102b8610913565b6040516102c591906127fb565b60405180910390f35b6102d6610936565b6040516102e391906127fb565b60405180910390f35b6102f461093c565b60405161030191906127fb565b60405180910390f35b610324600480360381019061031f9190612048565b610942565b005b61032e610ab3565b60405161033b91906127fb565b60405180910390f35b61034c610b1d565b005b6103686004803603810190610363919061213b565b610cc3565b005b610372610e83565b60405161037f9190612663565b60405180910390f35b610390610f29565b60405161039d91906127fb565b60405180910390f35b6103c060048036038101906103bb9190612048565b610fc0565b005b6103ca611125565b6040516103d791906127fb565b60405180910390f35b6103e86114e8565b6040516103f591906127fb565b60405180910390f35b6104066114f7565b60405161041391906127fb565b60405180910390f35b61042461150a565b6040516104319190612612565b60405180910390f35b61044261151b565b60405161044f91906127fb565b60405180910390f35b6104606115b2565b60405161046d9190612612565b60405180910390f35b61047e6115c4565b60405161048b91906127fb565b60405180910390f35b61049c6115fd565b6040516104a991906127fb565b60405180910390f35b6104ba61161b565b6040516104c791906127fb565b60405180910390f35b6104ea60048036038101906104e5919061213b565b611621565b005b6104f461174c565b6040516105019190612648565b60405180910390f35b6105126117f2565b60405161051f919061267e565b60405180910390f35b610530611818565b60405161053d919061262d565b60405180910390f35b61054e611841565b60405161055b91906127fb565b60405180910390f35b61057e6004803603810190610579919061213b565b611847565b005b6000806001541415905090565b60025481565b600060019054906101000a900473ffffffffffffffffffffffffffffffffffffffff1673ffffffffffffffffffffffffffffffffffffffff1663e43581b8336040518263ffffffff1660e01b81526004016105ee9190612597565b60206040518083038186803b15801561060657600080fd5b505afa15801561061a573d6000803e3d6000fd5b505050506040513d601f19601f8201168201806040525081019061063e91906120c0565b61067d576040517f08c379a0000000000000000000000000000000000000000000000000000000008152600401610674906127db565b60405180910390fd5b600460009054906101000a900473ffffffffffffffffffffffffffffffffffffffff1673ffffffffffffffffffffffffffffffffffffffff16631171bda98484846040518463ffffffff1660e01b81526004016106dc939291906125b2565b600060405180830381600087803b1580156106f657600080fd5b505af115801561070a573d6000803e3d6000fd5b50505050505050565b600060019054906101000a900473ffffffffffffffffffffffffffffffffffffffff1673ffffffffffffffffffffffffffffffffffffffff1663e43581b8336040518263ffffffff1660e01b815260040161076e9190612597565b60206040518083038186803b15801561078657600080fd5b505afa15801561079a573d6000803e3d6000fd5b505050506040513d601f19601f820116820180604052508101906107be91906120c0565b806108705750600060019054906101000a900473ffffffffffffffffffffffffffffffffffffffff1673ffffffffffffffffffffffffffffffffffffffff16630c68ba21336040518263ffffffff1660e01b815260040161081f9190612597565b60206040518083038186803b15801561083757600080fd5b505afa15801561084b573d6000803e3d6000fd5b505050506040513d601f19601f8201168201806040525081019061086f91906120c0565b5b6108af576040517f08c379a00000000000000000000000000000000000000000000000000000000081526004016108a69061271b565b60405180910390fd5b6108b7611972565b565b60008060009054906101000a900460ff16905090565b60006108d9610580565b6108e6576000905061090a565b600060025490506000600154420390508181116109035780610905565b815b925050505b90565b60065481565b60006109316003546109236114e8565b611a1390919063ffffffff16565b905090565b60055481565b60015481565b600060019054906101000a900473ffffffffffffffffffffffffffffffffffffffff1673ffffffffffffffffffffffffffffffffffffffff1663e43581b8336040518263ffffffff1660e01b815260040161099d9190612597565b60206040518083038186803b1580156109b557600080fd5b505afa1580156109c9573d6000803e3d6000fd5b505050506040513d601f19601f820116820180604052508101906109ed91906120c0565b610a2c576040517f08c379a0000000000000000000000000000000000000000000000000000000008152600401610a23906127db565b60405180910390fd5b80600060016101000a81548173ffffffffffffffffffffffffffffffffffffffff021916908373ffffffffffffffffffffffffffffffffffffffff1602179055508073ffffffffffffffffffffffffffffffffffffffff167fad9400e618eb1344fde53db22397a1b82c765527ecbba3a5c86bcac15090828b60405160405180910390a250565b600080610abe6114e8565b90506000610aca6115c4565b9050610b16816040518060400160405280601f81526020017f506f6f6c3a2052656c65617365642052657761726420756e646572666c6f770081525084611a689092919063ffffffff16565b9250505090565b600060019054906101000a900473ffffffffffffffffffffffffffffffffffffffff1673ffffffffffffffffffffffffffffffffffffffff1663e43581b8336040518263ffffffff1660e01b8152600401610b789190612597565b60206040518083038186803b158015610b9057600080fd5b505afa158015610ba4573d6000803e3d6000fd5b505050506040513d601f19601f82011682018060405250810190610bc891906120c0565b80610c7a5750600060019054906101000a900473ffffffffffffffffffffffffffffffffffffffff1673ffffffffffffffffffffffffffffffffffffffff16630c68ba21336040518263ffffffff1660e01b8152600401610c299190612597565b60206040518083038186803b158015610c4157600080fd5b505afa158015610c55573d6000803e3d6000fd5b505050506040513d601f19601f82011682018060405250810190610c7991906120c0565b5b610cb9576040517f08c379a0000000000000000000000000000000000000000000000000000000008152600401610cb09061271b565b60405180910390fd5b610cc1611abd565b565b600060019054906101000a900473ffffffffffffffffffffffffffffffffffffffff1673ffffffffffffffffffffffffffffffffffffffff1663e43581b8336040518263ffffffff1660e01b8152600401610d1e9190612597565b60206040518083038186803b158015610d3657600080fd5b505afa158015610d4a573d6000803e3d6000fd5b505050506040513d601f19601f82011682018060405250810190610d6e91906120c0565b610dad576040517f08c379a0000000000000000000000000000000000000000000000000000000008152600401610da4906127db565b60405180910390fd5b610db561174c565b73ffffffffffffffffffffffffffffffffffffffff1663a9059cbb610dd8611818565b836040518363ffffffff1660e01b8152600401610df69291906125e9565b602060405180830381600087803b158015610e1057600080fd5b505af1158015610e24573d6000803e3d6000fd5b505050506040513d601f19601f82011682018060405250810190610e4891906120c0565b507f59459235e2fc059c410a2562548c08f27adc25e8ec3216f9bd9e90630630381681604051610e7891906127fb565b60405180910390a150565b60008060019054906101000a900473ffffffffffffffffffffffffffffffffffffffff1673ffffffffffffffffffffffffffffffffffffffff16639a9ba4da6040518163ffffffff1660e01b815260040160206040518083038186803b158015610eec57600080fd5b505afa158015610f00573d6000803e3d6000fd5b505050506040513d601f19601f82011682018060405250810190610f249190612112565b905090565b6000610f3361174c565b73ffffffffffffffffffffffffffffffffffffffff166370a08231306040518263ffffffff1660e01b8152600401610f6b919061257c565b60206040518083038186803b158015610f8357600080fd5b505afa158015610f97573d6000803e3d6000fd5b505050506040513d601f19601f82011682018060405250810190610fbb9190612164565b905090565b600060019054906101000a900473ffffffffffffffffffffffffffffffffffffffff1673ffffffffffffffffffffffffffffffffffffffff1663e43581b8336040518263ffffffff1660e01b815260040161101b9190612597565b60206040518083038186803b15801561103357600080fd5b505afa158015611047573d6000803e3d6000fd5b505050506040513d601f19601f8201168201806040525081019061106b91906120c0565b6110aa576040517f08c379a00000000000000000000000000000000000000000000000000000000081526004016110a1906127db565b60405180910390fd5b80600460006101000a81548173ffffffffffffffffffffffffffffffffffffffff021916908373ffffffffffffffffffffffffffffffffffffffff1602179055507f08f180badc28b53cca8a66d7594702ef51ff4c8d98fcbff7243625452caeabb48160405161111a919061257c565b60405180910390a150565b60008060019054906101000a900473ffffffffffffffffffffffffffffffffffffffff1673ffffffffffffffffffffffffffffffffffffffff16639711ac346040518163ffffffff1660e01b815260040160206040518083038186803b15801561118e57600080fd5b505afa1580156111a2573d6000803e3d6000fd5b505050506040513d601f19601f820116820180604052508101906111c691906120c0565b611205576040517f08c379a00000000000000000000000000000000000000000000000000000000081526004016111fc906126bb565b60405180910390fd5b61120d6108b9565b1561124d576040517f08c379a00000000000000000000000000000000000000000000000000000000081526004016112449061277b565b60405180910390fd5b61125633611b5f565b15611296576040517f08c379a000000000000000000000000000000000000000000000000000000000815260040161128d906127bb565b60405180910390fd5b61129e6115b2565b6112dd576040517f08c379a00000000000000000000000000000000000000000000000000000000081526004016112d49061275b565b60405180910390fd5b4260058190555060006112ee610ab3565b90506000811415611334576040517f08c379a000000000000000000000000000000000000000000000000000000000815260040161132b906126fb565b60405180910390fd5b61134981600354611a1390919063ffffffff16565b60038190555061135761174c565b73ffffffffffffffffffffffffffffffffffffffff1663a9059cbb600460009054906101000a900473ffffffffffffffffffffffffffffffffffffffff16836040518363ffffffff1660e01b81526004016113b39291906125e9565b602060405180830381600087803b1580156113cd57600080fd5b505af11580156113e1573d6000803e3d6000fd5b505050506040513d601f19601f8201168201806040525081019061140591906120c0565b50600460009054906101000a900473ffffffffffffffffffffffffffffffffffffffff1673ffffffffffffffffffffffffffffffffffffffff16633c6b16ab826040518263ffffffff1660e01b815260040161146191906127fb565b600060405180830381600087803b15801561147b57600080fd5b505af115801561148f573d6000803e3d6000fd5b505050503373ffffffffffffffffffffffffffffffffffffffff167f7cad7fbe1215c486c724bf41124e0ed689d280724381379da844556025c463c1826040516114d991906127fb565b60405180910390a28091505090565b60006114f2610f29565b905090565b60006115016108cf565b60025403905090565b6000806115156114f7565b14905090565b6000611525610e83565b73ffffffffffffffffffffffffffffffffffffffff166370a08231306040518263ffffffff1660e01b815260040161155d919061257c565b60206040518083038186803b15801561157557600080fd5b505afa158015611589573d6000803e3d6000fd5b505050506040513d601f19601f820116820180604052508101906115ad9190612164565b905090565b60006115bc6115fd565b421015905090565b60006115ce61150a565b156115dc57600090506115fa565b6115f76115e7610913565b6002546115f26108cf565b611b72565b90505b90565b6000611616600654600554611a1390919063ffffffff16565b905090565b60075481565b600060019054906101000a900473ffffffffffffffffffffffffffffffffffffffff1673ffffffffffffffffffffffffffffffffffffffff1663e43581b8336040518263ffffffff1660e01b815260040161167c9190612597565b60206040518083038186803b15801561169457600080fd5b505afa1580156116a8573d6000803e3d6000fd5b505050506040513d601f19601f820116820180604052508101906116cc91906120c0565b61170b576040517f08c379a0000000000000000000000000000000000000000000000000000000008152600401611702906127db565b60405180910390fd5b806007819055507f2f0fc31cee419b6a73870b1b60c9645d4321fb32d847025411bc37fe14531f948160405161174191906127fb565b60405180910390a150565b60008060019054906101000a900473ffffffffffffffffffffffffffffffffffffffff1673ffffffffffffffffffffffffffffffffffffffff1663de72f1076040518163ffffffff1660e01b815260040160206040518083038186803b1580156117b557600080fd5b505afa1580156117c9573d6000803e3d6000fd5b505050506040513d601f19601f820116820180604052508101906117ed91906120e9565b905090565b600460009054906101000a900473ffffffffffffffffffffffffffffffffffffffff1681565b60008060019054906101000a900473ffffffffffffffffffffffffffffffffffffffff16905090565b60035481565b600060019054906101000a900473ffffffffffffffffffffffffffffffffffffffff1673ffffffffffffffffffffffffffffffffffffffff1663e43581b8336040518263ffffffff1660e01b81526004016118a29190612597565b60206040518083038186803b1580156118ba57600080fd5b505afa1580156118ce573d6000803e3d6000fd5b505050506040513d601f19601f820116820180604052508101906118f291906120c0565b611931576040517f08c379a0000000000000000000000000000000000000000000000000000000008152600401611928906127db565b60405180910390fd5b806006819055507faea4c6555807b4e6dd71153a54a7a352c589aafb68cea34044db2db833fd953f8160405161196791906127fb565b60405180910390a150565b61197a6108b9565b6119b9576040517f08c379a00000000000000000000000000000000000000000000000000000000081526004016119b0906126db565b60405180910390fd5b60008060006101000a81548160ff0219169083151502179055507f5db9ee0a495bf2e6ff9c91a7834c1ba4fdd244a5e8aa4e537bd38aeae4b073aa6119fc611c1f565b604051611a099190612597565b60405180910390a1565b600080828401905083811015611a5e576040517f08c379a0000000000000000000000000000000000000000000000000000000008152600401611a559061273b565b60405180910390fd5b8091505092915050565b6000838311158290611ab0576040517f08c379a0000000000000000000000000000000000000000000000000000000008152600401611aa79190612699565b60405180910390fd5b5082840390509392505050565b611ac56108b9565b15611b05576040517f08c379a0000000000000000000000000000000000000000000000000000000008152600401611afc9061277b565b60405180910390fd5b60016000806101000a81548160ff0219169083151502179055507f62e78cea01bee320cd4e420270b5ea74000d11b0c9f74754ebdbfc544b05a258611b48611c1f565b604051611b559190612597565b60405180910390a1565b600080823b905060008111915050919050565b6000611b7c611fb7565b611bab83611b9d6002611b8f8989611c27565b611c5890919063ffffffff16565b611c5890919063ffffffff16565b9050611bb5611fb7565b611be5848502611bd787611bc98a8a611c27565b611c8d90919063ffffffff16565b611c5890919063ffffffff16565b9050611c14611c0f83611c018985611cc290919063ffffffff16565b611d1190919063ffffffff16565b611d4a565b925050509392505050565b600033905090565b611c2f611fb7565b6040518060200160405280611c4d85670de0b6b3a764000086611d72565b815250905092915050565b611c60611fb7565b6040518060200160405280611c82848660000151611da290919063ffffffff16565b815250905092915050565b611c95611fb7565b6040518060200160405280611cb7848660000151611e1290919063ffffffff16565b815250905092915050565b611cca611fb7565b6040518060200160405280611d06611cf3670de0b6b3a764000086611da290919063ffffffff16565b8660000151611e5c90919063ffffffff16565b815250905092915050565b611d19611fb7565b6040518060200160405280611d3f84600001518660000151611eb190919063ffffffff16565b815250905092915050565b6000611d6b670de0b6b3a76400008360000151611e1290919063ffffffff16565b9050919050565b6000611d9982611d8b8587611da290919063ffffffff16565b611e1290919063ffffffff16565b90509392505050565b600080831415611db55760009050611e0c565b6000828402905082848281611dc657fe5b0414611e07576040517f08c379a0000000000000000000000000000000000000000000000000000000008152600401611dfe9061279b565b60405180910390fd5b809150505b92915050565b6000611e5483836040518060400160405280601a81526020017f536166654d6174683a206469766973696f6e206279207a65726f000000000000815250611efb565b905092915050565b600080828401905083811015611ea7576040517f08c379a0000000000000000000000000000000000000000000000000000000008152600401611e9e9061273b565b60405180910390fd5b8091505092915050565b6000611ef383836040518060400160405280601e81526020017f536166654d6174683a207375627472616374696f6e206f766572666c6f770000815250611f5c565b905092915050565b60008083118290611f42576040517f08c379a0000000000000000000000000000000000000000000000000000000008152600401611f399190612699565b60405180910390fd5b506000838581611f4e57fe5b049050809150509392505050565b6000838311158290611fa4576040517f08c379a0000000000000000000000000000000000000000000000000000000008152600401611f9b9190612699565b60405180910390fd5b5060008385039050809150509392505050565b6040518060200160405280600081525090565b600081359050611fd9816129a8565b92915050565b600081519050611fee816129bf565b92915050565b600081519050612003816129d6565b92915050565b600081519050612018816129ed565b92915050565b60008135905061202d81612a04565b92915050565b60008151905061204281612a04565b92915050565b60006020828403121561205a57600080fd5b600061206884828501611fca565b91505092915050565b60008060006060848603121561208657600080fd5b600061209486828701611fca565b93505060206120a586828701611fca565b92505060406120b68682870161201e565b9150509250925092565b6000602082840312156120d257600080fd5b60006120e084828501611fdf565b91505092915050565b6000602082840312156120fb57600080fd5b600061210984828501611ff4565b91505092915050565b60006020828403121561212457600080fd5b600061213284828501612009565b91505092915050565b60006020828403121561214d57600080fd5b600061215b8482850161201e565b91505092915050565b60006020828403121561217657600080fd5b600061218484828501612033565b91505092915050565b6121968161289e565b82525050565b6121a581612832565b82525050565b6121b481612844565b82525050565b6121c3816128b0565b82525050565b6121d2816128d4565b82525050565b6121e1816128f8565b82525050565b6121f08161291c565b82525050565b600061220182612816565b61220b8185612821565b935061221b818560208601612964565b61222481612997565b840191505092915050565b600061223c602083612821565b91507f436f72655265663a205374696c6c20696e2047656e6573697320506572696f646000830152602082019050919050565b600061227c601483612821565b91507f5061757361626c653a206e6f74207061757365640000000000000000000000006000830152602082019050919050565b60006122bc602283612821565b91507f4d6f6e6f526577617264734469737472696275746f723a206e6f20726577617260008301527f64730000000000000000000000000000000000000000000000000000000000006020830152604082019050919050565b6000612322602d83612821565b91507f436f72655265663a2043616c6c6572206973206e6f742061206775617264696160008301527f6e206f7220676f7665726e6f72000000000000000000000000000000000000006020830152604082019050919050565b6000612388601b83612821565b91507f536166654d6174683a206164646974696f6e206f766572666c6f7700000000006000830152602082019050919050565b60006123c8603183612821565b91507f4d6f6e6f526577617264734469737472696275746f723a204e6f74207061737360008301527f65642064726970206672657175656e63790000000000000000000000000000006020830152604082019050919050565b600061242e601083612821565b91507f5061757361626c653a20706175736564000000000000000000000000000000006000830152602082019050919050565b600061246e602183612821565b91507f536166654d6174683a206d756c7469706c69636174696f6e206f766572666c6f60008301527f77000000000000000000000000000000000000000000000000000000000000006020830152604082019050919050565b60006124d4601d83612821565b91507f436f72655265663a2043616c6c6572206973206120636f6e74726163740000006000830152602082019050919050565b6000612514602183612821565b91507f436f72655265663a2043616c6c6572206973206e6f74206120676f7665726e6f60008301527f72000000000000000000000000000000000000000000000000000000000000006020830152604082019050919050565b61257681612894565b82525050565b6000602082019050612591600083018461219c565b92915050565b60006020820190506125ac600083018461218d565b92915050565b60006060820190506125c7600083018661219c565b6125d4602083018561219c565b6125e1604083018461256d565b949350505050565b60006040820190506125fe600083018561219c565b61260b602083018461256d565b9392505050565b600060208201905061262760008301846121ab565b92915050565b600060208201905061264260008301846121ba565b92915050565b600060208201905061265d60008301846121c9565b92915050565b600060208201905061267860008301846121d8565b92915050565b600060208201905061269360008301846121e7565b92915050565b600060208201905081810360008301526126b381846121f6565b905092915050565b600060208201905081810360008301526126d48161222f565b9050919050565b600060208201905081810360008301526126f48161226f565b9050919050565b60006020820190508181036000830152612714816122af565b9050919050565b6000602082019050818103600083015261273481612315565b9050919050565b600060208201905081810360008301526127548161237b565b9050919050565b60006020820190508181036000830152612774816123bb565b9050919050565b6000602082019050818103600083015261279481612421565b9050919050565b600060208201905081810360008301526127b481612461565b9050919050565b600060208201905081810360008301526127d4816124c7565b9050919050565b600060208201905081810360008301526127f481612507565b9050919050565b6000602082019050612810600083018461256d565b92915050565b600081519050919050565b600082825260208201905092915050565b600061283d82612874565b9050919050565b60008115159050919050565b600061285b82612832565b9050919050565b600061286d82612832565b9050919050565b600073ffffffffffffffffffffffffffffffffffffffff82169050919050565b6000819050919050565b60006128a982612940565b9050919050565b60006128bb826128c2565b9050919050565b60006128cd82612874565b9050919050565b60006128df826128e6565b9050919050565b60006128f182612874565b9050919050565b60006129038261290a565b9050919050565b600061291582612874565b9050919050565b60006129278261292e565b9050919050565b600061293982612874565b9050919050565b600061294b82612952565b9050919050565b600061295d82612874565b9050919050565b60005b83811015612982578082015181840152602081019050612967565b83811115612991576000848401525b50505050565b6000601f19601f8301169050919050565b6129b181612832565b81146129bc57600080fd5b50565b6129c881612844565b81146129d357600080fd5b50565b6129df81612850565b81146129ea57600080fd5b50565b6129f681612862565b8114612a0157600080fd5b50565b612a0d81612894565b8114612a1857600080fd5b5056fea2646970667358221220a0f11ffa50fdd01c0173a5237dc5a1bd07b22645f40c0fa293730aba5e76de3064736f6c63430006060033",
  "linkReferences": {},
  "deployedLinkReferences": {}
}