{
  "_format": "hh-sol-artifact-1",
  "contractName": "MonoswapStaking",
  "sourceName": "contracts/MonoswapStaking.sol",
  "abi": [
    {
      "inputs": [
        {
          "internalType": "address",
          "name": "_distributor",
          "type": "address"
        },
        {
          "internalType": "address",
          "name": "_mono",
          "type": "address"
        },
        {
          "internalType": "address",
          "name": "_pair",
          "type": "address"
        },
        {
          "internalType": "uint256",
          "name": "_duration",
          "type": "uint256"
        }
      ],
      "stateMutability": "nonpayable",
      "type": "constructor"
    },
    {
      "anonymous": false,
      "inputs": [
        {
          "indexed": true,
          "internalType": "address",
          "name": "tokenAddress",
          "type": "address"
        },
        {
          "indexed": true,
          "internalType": "address",
          "name": "to",
          "type": "address"
        },
        {
          "indexed": false,
          "internalType": "uint256",
          "name": "amount",
          "type": "uint256"
        }
      ],
      "name": "Recovered",
      "type": "event"
    },
    {
      "anonymous": false,
      "inputs": [
        {
          "indexed": false,
          "internalType": "uint256",
          "name": "reward",
          "type": "uint256"
        }
      ],
      "name": "RewardAdded",
      "type": "event"
    },
    {
      "anonymous": false,
      "inputs": [
        {
          "indexed": true,
          "internalType": "address",
          "name": "user",
          "type": "address"
        },
        {
          "indexed": false,
          "internalType": "uint256",
          "name": "reward",
          "type": "uint256"
        }
      ],
      "name": "RewardPaid",
      "type": "event"
    },
    {
      "anonymous": false,
      "inputs": [
        {
          "indexed": true,
          "internalType": "address",
          "name": "user",
          "type": "address"
        },
        {
          "indexed": false,
          "internalType": "uint256",
          "name": "amount",
          "type": "uint256"
        }
      ],
      "name": "Staked",
      "type": "event"
    },
    {
      "anonymous": false,
      "inputs": [
        {
          "indexed": true,
          "internalType": "address",
          "name": "user",
          "type": "address"
        },
        {
          "indexed": false,
          "internalType": "uint256",
          "name": "amount",
          "type": "uint256"
        }
      ],
      "name": "Withdrawn",
      "type": "event"
    },
    {
      "inputs": [
        {
          "internalType": "address",
          "name": "account",
          "type": "address"
        }
      ],
      "name": "balanceOf",
      "outputs": [
        {
          "internalType": "uint256",
          "name": "",
          "type": "uint256"
        }
      ],
      "stateMutability": "view",
      "type": "function"
    },
    {
      "inputs": [
        {
          "internalType": "address",
          "name": "account",
          "type": "address"
        }
      ],
      "name": "earned",
      "outputs": [
        {
          "internalType": "uint256",
          "name": "",
          "type": "uint256"
        }
      ],
      "stateMutability": "view",
      "type": "function"
    },
    {
      "inputs": [
        {
          "internalType": "uint256",
          "name": "id",
          "type": "uint256"
        },
        {
          "internalType": "bytes",
          "name": "data",
          "type": "bytes"
        }
      ],
      "name": "exit",
      "outputs": [],
      "stateMutability": "nonpayable",
      "type": "function"
    },
    {
      "inputs": [],
      "name": "getReward",
      "outputs": [],
      "stateMutability": "nonpayable",
      "type": "function"
    },
    {
      "inputs": [],
      "name": "getRewardForDuration",
      "outputs": [
        {
          "internalType": "uint256",
          "name": "",
          "type": "uint256"
        }
      ],
      "stateMutability": "view",
      "type": "function"
    },
    {
      "inputs": [],
      "name": "lastTimeRewardApplicable",
      "outputs": [
        {
          "internalType": "uint256",
          "name": "",
          "type": "uint256"
        }
      ],
      "stateMutability": "view",
      "type": "function"
    },
    {
      "inputs": [],
      "name": "lastUpdateTime",
      "outputs": [
        {
          "internalType": "uint256",
          "name": "",
          "type": "uint256"
        }
      ],
      "stateMutability": "view",
      "type": "function"
    },
    {
      "inputs": [
        {
          "internalType": "uint256",
          "name": "reward",
          "type": "uint256"
        }
      ],
      "name": "notifyRewardAmount",
      "outputs": [],
      "stateMutability": "nonpayable",
      "type": "function"
    },
    {
      "inputs": [
        {
          "internalType": "address",
          "name": "",
          "type": "address"
        },
        {
          "internalType": "address",
          "name": "",
          "type": "address"
        },
        {
          "internalType": "uint256[]",
          "name": "",
          "type": "uint256[]"
        },
        {
          "internalType": "uint256[]",
          "name": "",
          "type": "uint256[]"
        },
        {
          "internalType": "bytes",
          "name": "",
          "type": "bytes"
        }
      ],
      "name": "onERC1155BatchReceived",
      "outputs": [
        {
          "internalType": "bytes4",
          "name": "",
          "type": "bytes4"
        }
      ],
      "stateMutability": "nonpayable",
      "type": "function"
    },
    {
      "inputs": [
        {
          "internalType": "address",
          "name": "",
          "type": "address"
        },
        {
          "internalType": "address",
          "name": "",
          "type": "address"
        },
        {
          "internalType": "uint256",
          "name": "",
          "type": "uint256"
        },
        {
          "internalType": "uint256",
          "name": "",
          "type": "uint256"
        },
        {
          "internalType": "bytes",
          "name": "",
          "type": "bytes"
        }
      ],
      "name": "onERC1155Received",
      "outputs": [
        {
          "internalType": "bytes4",
          "name": "",
          "type": "bytes4"
        }
      ],
      "stateMutability": "nonpayable",
      "type": "function"
    },
    {
      "inputs": [],
      "name": "periodFinish",
      "outputs": [
        {
          "internalType": "uint256",
          "name": "",
          "type": "uint256"
        }
      ],
      "stateMutability": "view",
      "type": "function"
    },
    {
      "inputs": [
        {
          "internalType": "address",
          "name": "tokenAddress",
          "type": "address"
        },
        {
          "internalType": "address",
          "name": "to",
          "type": "address"
        },
        {
          "internalType": "uint256",
          "name": "tokenAmount",
          "type": "uint256"
        }
      ],
      "name": "recoverERC20",
      "outputs": [],
      "stateMutability": "nonpayable",
      "type": "function"
    },
    {
      "inputs": [],
      "name": "rewardPerToken",
      "outputs": [
        {
          "internalType": "uint256",
          "name": "",
          "type": "uint256"
        }
      ],
      "stateMutability": "view",
      "type": "function"
    },
    {
      "inputs": [],
      "name": "rewardPerTokenStored",
      "outputs": [
        {
          "internalType": "uint256",
          "name": "",
          "type": "uint256"
        }
      ],
      "stateMutability": "view",
      "type": "function"
    },
    {
      "inputs": [],
      "name": "rewardRate",
      "outputs": [
        {
          "internalType": "uint256",
          "name": "",
          "type": "uint256"
        }
      ],
      "stateMutability": "view",
      "type": "function"
    },
    {
      "inputs": [
        {
          "internalType": "address",
          "name": "",
          "type": "address"
        }
      ],
      "name": "rewards",
      "outputs": [
        {
          "internalType": "uint256",
          "name": "",
          "type": "uint256"
        }
      ],
      "stateMutability": "view",
      "type": "function"
    },
    {
      "inputs": [],
      "name": "rewardsDistribution",
      "outputs": [
        {
          "internalType": "address",
          "name": "",
          "type": "address"
        }
      ],
      "stateMutability": "view",
      "type": "function"
    },
    {
      "inputs": [],
      "name": "rewardsDuration",
      "outputs": [
        {
          "internalType": "uint256",
          "name": "",
          "type": "uint256"
        }
      ],
      "stateMutability": "view",
      "type": "function"
    },
    {
      "inputs": [],
      "name": "rewardsToken",
      "outputs": [
        {
          "internalType": "contract IERC20",
          "name": "",
          "type": "address"
        }
      ],
      "stateMutability": "view",
      "type": "function"
    },
    {
      "inputs": [
        {
          "internalType": "uint256",
          "name": "amount",
          "type": "uint256"
        },
        {
          "internalType": "uint256",
          "name": "id",
          "type": "uint256"
        },
        {
          "internalType": "bytes",
          "name": "data",
          "type": "bytes"
        }
      ],
      "name": "stake",
      "outputs": [],
      "stateMutability": "nonpayable",
      "type": "function"
    },
    {
      "inputs": [],
      "name": "stakingToken",
      "outputs": [
        {
          "internalType": "contract IERC1155",
          "name": "",
          "type": "address"
        }
      ],
      "stateMutability": "view",
      "type": "function"
    },
    {
      "inputs": [
        {
          "internalType": "bytes4",
          "name": "interfaceId",
          "type": "bytes4"
        }
      ],
      "name": "supportsInterface",
      "outputs": [
        {
          "internalType": "bool",
          "name": "",
          "type": "bool"
        }
      ],
      "stateMutability": "view",
      "type": "function"
    },
    {
      "inputs": [],
      "name": "totalSupply",
      "outputs": [
        {
          "internalType": "uint256",
          "name": "",
          "type": "uint256"
        }
      ],
      "stateMutability": "view",
      "type": "function"
    },
    {
      "inputs": [
        {
          "internalType": "address",
          "name": "",
          "type": "address"
        }
      ],
      "name": "userRewardPerTokenPaid",
      "outputs": [
        {
          "internalType": "uint256",
          "name": "",
          "type": "uint256"
        }
      ],
      "stateMutability": "view",
      "type": "function"
    },
    {
      "inputs": [
        {
          "internalType": "uint256",
          "name": "amount",
          "type": "uint256"
        },
        {
          "internalType": "uint256",
          "name": "id",
          "type": "uint256"
        },
        {
          "internalType": "bytes",
          "name": "data",
          "type": "bytes"
        }
      ],
      "name": "withdraw",
      "outputs": [],
      "stateMutability": "nonpayable",
      "type": "function"
    }
  ],
  "bytecode": "0x6080604052600060055560006006553480156200001b57600080fd5b506040516200303338038062003033833981810160405281019062000041919062000263565b8383838360018081905550620000646301ffc9a760e01b6200015c60201b60201c565b6200008563bc197c8160e01b63f23a6e6160e01b186200015c60201b60201c565b82600360006101000a81548173ffffffffffffffffffffffffffffffffffffffff021916908373ffffffffffffffffffffffffffffffffffffffff16021790555081600460006101000a81548173ffffffffffffffffffffffffffffffffffffffff021916908373ffffffffffffffffffffffffffffffffffffffff160217905550836000806101000a81548173ffffffffffffffffffffffffffffffffffffffff021916908373ffffffffffffffffffffffffffffffffffffffff160217905550806007819055505050505050505050620003b6565b63ffffffff60e01b817bffffffffffffffffffffffffffffffffffffffffffffffffffffffff19161415620001c8576040517f08c379a0000000000000000000000000000000000000000000000000000000008152600401620001bf9062000311565b60405180910390fd5b600160026000837bffffffffffffffffffffffffffffffffffffffffffffffffffffffff19167bffffffffffffffffffffffffffffffffffffffffffffffffffffffff1916815260200190815260200160002060006101000a81548160ff02191690831515021790555050565b600081519050620002468162000382565b92915050565b6000815190506200025d816200039c565b92915050565b600080600080608085870312156200027a57600080fd5b60006200028a8782880162000235565b94505060206200029d8782880162000235565b9350506040620002b08782880162000235565b9250506060620002c3878288016200024c565b91505092959194509250565b6000620002de601c8362000333565b91507f4552433136353a20696e76616c696420696e74657266616365206964000000006000830152602082019050919050565b600060208201905081810360008301526200032c81620002cf565b9050919050565b600082825260208201905092915050565b6000620003518262000358565b9050919050565b600073ffffffffffffffffffffffffffffffffffffffff82169050919050565b6000819050919050565b6200038d8162000344565b81146200039957600080fd5b50565b620003a78162000378565b8114620003b357600080fd5b50565b612c6d80620003c66000396000f3fe608060405234801561001057600080fd5b50600436106101725760003560e01c806370a08231116100de578063bc197c8111610097578063d1af0c7d11610071578063d1af0c7d1461043b578063df136d6514610459578063ebe2b12b14610477578063f23a6e611461049557610172565b8063bc197c81146103cf578063c8f33c91146103ff578063cd3daf9d1461041d57610172565b806370a08231146102f957806372f702f314610329578063744fb6ca146103475780637b0a47ee1461036357806380faa57d146103815780638b8763471461039f57610172565b8063386a952511610130578063386a95251461025f5780633c6b16ab1461027d5780633d18b912146102995780633fc6df6e146102a3578063427c0716146102c157806348c35d46146102dd57610172565b80628cc2621461017757806301ffc9a7146101a75780630700037d146101d75780631171bda91461020757806318160ddd146102235780631c1f78eb14610241575b600080fd5b610191600480360381019061018c9190611d26565b6104c5565b60405161019e91906129b7565b60405180910390f35b6101c160048036038101906101bc9190611f15565b6105e3565b6040516101ce9190612769565b60405180910390f35b6101f160048036038101906101ec9190611d26565b61064b565b6040516101fe91906129b7565b60405180910390f35b610221600480360381019061021c9190611e0e565b610663565b005b61022b6108a9565b60405161023891906129b7565b60405180910390f35b6102496108b3565b60405161025691906129b7565b60405180910390f35b6102676108d1565b60405161027491906129b7565b60405180910390f35b61029760048036038101906102929190611f3e565b6108d7565b005b6102a1610c3c565b005b6102ab610ea7565b6040516102b8919061266f565b60405180910390f35b6102db60048036038101906102d69190611f90565b610ecc565b005b6102f760048036038101906102f29190611fe8565b610f67565b005b610313600480360381019061030e9190611d26565b61127f565b60405161032091906129b7565b60405180910390f35b6103316112c8565b60405161033e919061279f565b60405180910390f35b610361600480360381019061035c9190612054565b6112ee565b005b61036b611603565b60405161037891906129b7565b60405180910390f35b610389611609565b60405161039691906129b7565b60405180910390f35b6103b960048036038101906103b49190611d26565b61161c565b6040516103c691906129b7565b60405180910390f35b6103e960048036038101906103e49190611d4f565b611634565b6040516103f69190612784565b60405180910390f35b610407611649565b60405161041491906129b7565b60405180910390f35b61042561164f565b60405161043291906129b7565b60405180910390f35b6104436116dd565b60405161045091906127ba565b60405180910390f35b610461611703565b60405161046e91906129b7565b60405180910390f35b61047f611709565b60405161048c91906129b7565b60405180910390f35b6104af60048036038101906104aa9190611e5d565b61170f565b6040516104bc9190612784565b60405180910390f35b60006105dc600b60008473ffffffffffffffffffffffffffffffffffffffff1673ffffffffffffffffffffffffffffffffffffffff168152602001908152602001600020546105ce670de0b6b3a76400006105c0610572600a60008973ffffffffffffffffffffffffffffffffffffffff1673ffffffffffffffffffffffffffffffffffffffff1681526020019081526020016000205461056461164f565b61172490919063ffffffff16565b600d60008973ffffffffffffffffffffffffffffffffffffffff1673ffffffffffffffffffffffffffffffffffffffff1681526020019081526020016000205461177490919063ffffffff16565b6117e490919063ffffffff16565b61183a90919063ffffffff16565b9050919050565b600060026000837bffffffffffffffffffffffffffffffffffffffffffffffffffffffff19167bffffffffffffffffffffffffffffffffffffffffffffffffffffffff1916815260200190815260200160002060009054906101000a900460ff169050919050565b600b6020528060005260406000206000915090505481565b6000809054906101000a900473ffffffffffffffffffffffffffffffffffffffff1673ffffffffffffffffffffffffffffffffffffffff163373ffffffffffffffffffffffffffffffffffffffff16146106f2576040517f08c379a00000000000000000000000000000000000000000000000000000000081526004016106e990612917565b60405180910390fd5b600460009054906101000a900473ffffffffffffffffffffffffffffffffffffffff1673ffffffffffffffffffffffffffffffffffffffff168373ffffffffffffffffffffffffffffffffffffffff161415610783576040517f08c379a000000000000000000000000000000000000000000000000000000000815260040161077a90612977565b60405180910390fd5b600360009054906101000a900473ffffffffffffffffffffffffffffffffffffffff1673ffffffffffffffffffffffffffffffffffffffff168373ffffffffffffffffffffffffffffffffffffffff161415610814576040517f08c379a000000000000000000000000000000000000000000000000000000000815260040161080b90612997565b60405180910390fd5b61083f82828573ffffffffffffffffffffffffffffffffffffffff1661188f9092919063ffffffff16565b8173ffffffffffffffffffffffffffffffffffffffff168373ffffffffffffffffffffffffffffffffffffffff167ffff3b3844276f57024e0b42afec1a37f75db36511e43819a4f2a63ab7862b6488360405161089c91906129b7565b60405180910390a3505050565b6000600c54905090565b60006108cc60075460065461177490919063ffffffff16565b905090565b60075481565b6000809054906101000a900473ffffffffffffffffffffffffffffffffffffffff1673ffffffffffffffffffffffffffffffffffffffff163373ffffffffffffffffffffffffffffffffffffffff1614610966576040517f08c379a000000000000000000000000000000000000000000000000000000000815260040161095d90612917565b60405180910390fd5b600061097061164f565b60098190555061097e611609565b600881905550600073ffffffffffffffffffffffffffffffffffffffff168173ffffffffffffffffffffffffffffffffffffffff1614610a4b576109c1816104c5565b600b60008373ffffffffffffffffffffffffffffffffffffffff1673ffffffffffffffffffffffffffffffffffffffff16815260200190815260200160002081905550600954600a60008373ffffffffffffffffffffffffffffffffffffffff1673ffffffffffffffffffffffffffffffffffffffff168152602001908152602001600020819055505b6005544210610a7457610a69600754836117e490919063ffffffff16565b600681905550610ad6565b6000610a8b4260055461172490919063ffffffff16565b90506000610aa46006548361177490919063ffffffff16565b9050610acd600754610abf838761183a90919063ffffffff16565b6117e490919063ffffffff16565b60068190555050505b6000600360009054906101000a900473ffffffffffffffffffffffffffffffffffffffff1673ffffffffffffffffffffffffffffffffffffffff166370a08231306040518263ffffffff1660e01b8152600401610b33919061266f565b60206040518083038186803b158015610b4b57600080fd5b505afa158015610b5f573d6000803e3d6000fd5b505050506040513d601f19601f82011682018060405250810190610b839190611f67565b9050610b9a600754826117e490919063ffffffff16565b6006541115610bde576040517f08c379a0000000000000000000000000000000000000000000000000000000008152600401610bd5906128d7565b60405180910390fd5b42600881905550610bfa6007544261183a90919063ffffffff16565b6005819055507fde88a922e0d3b88b24e9623efeb464919c6bf9f66857a65e2bfcf2ce87a9433d83604051610c2f91906129b7565b60405180910390a1505050565b60026001541415610c82576040517f08c379a0000000000000000000000000000000000000000000000000000000008152600401610c7990612957565b60405180910390fd5b600260018190555033610c9361164f565b600981905550610ca1611609565b600881905550600073ffffffffffffffffffffffffffffffffffffffff168173ffffffffffffffffffffffffffffffffffffffff1614610d6e57610ce4816104c5565b600b60008373ffffffffffffffffffffffffffffffffffffffff1673ffffffffffffffffffffffffffffffffffffffff16815260200190815260200160002081905550600954600a60008373ffffffffffffffffffffffffffffffffffffffff1673ffffffffffffffffffffffffffffffffffffffff168152602001908152602001600020819055505b6000600b60003373ffffffffffffffffffffffffffffffffffffffff1673ffffffffffffffffffffffffffffffffffffffff1681526020019081526020016000205490506000811115610e9c576000600b60003373ffffffffffffffffffffffffffffffffffffffff1673ffffffffffffffffffffffffffffffffffffffff16815260200190815260200160002081905550610e4d3382600360009054906101000a900473ffffffffffffffffffffffffffffffffffffffff1673ffffffffffffffffffffffffffffffffffffffff1661188f9092919063ffffffff16565b3373ffffffffffffffffffffffffffffffffffffffff167fe2403640ba68fed3a2f88b7557551d1993f84b99bb10ff833f0cf8db0c5e048682604051610e9391906129b7565b60405180910390a25b505060018081905550565b6000809054906101000a900473ffffffffffffffffffffffffffffffffffffffff1681565b610f5a600d60003373ffffffffffffffffffffffffffffffffffffffff1673ffffffffffffffffffffffffffffffffffffffff168152602001908152602001600020548484848080601f016020809104026020016040519081016040528093929190818152602001838380828437600081840152601f19601f820116905080830192505050505050506112ee565b610f62610c3c565b505050565b60026001541415610fad576040517f08c379a0000000000000000000000000000000000000000000000000000000008152600401610fa490612957565b60405180910390fd5b600260018190555033610fbe61164f565b600981905550610fcc611609565b600881905550600073ffffffffffffffffffffffffffffffffffffffff168173ffffffffffffffffffffffffffffffffffffffff16146110995761100f816104c5565b600b60008373ffffffffffffffffffffffffffffffffffffffff1673ffffffffffffffffffffffffffffffffffffffff16815260200190815260200160002081905550600954600a60008373ffffffffffffffffffffffffffffffffffffffff1673ffffffffffffffffffffffffffffffffffffffff168152602001908152602001600020819055505b600085116110dc576040517f08c379a00000000000000000000000000000000000000000000000000000000081526004016110d3906127f7565b60405180910390fd5b6110f185600c5461183a90919063ffffffff16565b600c8190555061114985600d60003373ffffffffffffffffffffffffffffffffffffffff1673ffffffffffffffffffffffffffffffffffffffff1681526020019081526020016000205461183a90919063ffffffff16565b600d60003373ffffffffffffffffffffffffffffffffffffffff1673ffffffffffffffffffffffffffffffffffffffff16815260200190815260200160002081905550600460009054906101000a900473ffffffffffffffffffffffffffffffffffffffff1673ffffffffffffffffffffffffffffffffffffffff1663f242432a3330878988886040518763ffffffff1660e01b81526004016111f19695949392919061268a565b600060405180830381600087803b15801561120b57600080fd5b505af115801561121f573d6000803e3d6000fd5b505050503373ffffffffffffffffffffffffffffffffffffffff167f9e71bc8eea02a63969f509818f2dafb9254532904319f9dbda79b67bd34a5f3d8660405161126991906129b7565b60405180910390a2506001808190555050505050565b6000600d60008373ffffffffffffffffffffffffffffffffffffffff1673ffffffffffffffffffffffffffffffffffffffff168152602001908152602001600020549050919050565b600460009054906101000a900473ffffffffffffffffffffffffffffffffffffffff1681565b60026001541415611334576040517f08c379a000000000000000000000000000000000000000000000000000000000815260040161132b90612957565b60405180910390fd5b60026001819055503361134561164f565b600981905550611353611609565b600881905550600073ffffffffffffffffffffffffffffffffffffffff168173ffffffffffffffffffffffffffffffffffffffff161461142057611396816104c5565b600b60008373ffffffffffffffffffffffffffffffffffffffff1673ffffffffffffffffffffffffffffffffffffffff16815260200190815260200160002081905550600954600a60008373ffffffffffffffffffffffffffffffffffffffff1673ffffffffffffffffffffffffffffffffffffffff168152602001908152602001600020819055505b60008411611463576040517f08c379a000000000000000000000000000000000000000000000000000000000815260040161145a90612897565b60405180910390fd5b61147884600c5461172490919063ffffffff16565b600c819055506114d084600d60003373ffffffffffffffffffffffffffffffffffffffff1673ffffffffffffffffffffffffffffffffffffffff1681526020019081526020016000205461172490919063ffffffff16565b600d60003373ffffffffffffffffffffffffffffffffffffffff1673ffffffffffffffffffffffffffffffffffffffff16815260200190815260200160002081905550600460009054906101000a900473ffffffffffffffffffffffffffffffffffffffff1673ffffffffffffffffffffffffffffffffffffffff1663f242432a30338688876040518663ffffffff1660e01b81526004016115769594939291906126e6565b600060405180830381600087803b15801561159057600080fd5b505af11580156115a4573d6000803e3d6000fd5b505050503373ffffffffffffffffffffffffffffffffffffffff167f7084f5476618d8e60b11ef0d7d3f06914655adb8793e28ff7f018d4c76d505d5856040516115ee91906129b7565b60405180910390a25060018081905550505050565b60065481565b600061161742600554611915565b905090565b600a6020528060005260406000206000915090505481565b600063bc197c8160e01b905095945050505050565b60085481565b600080600c5414156116655760095490506116da565b6116d76116c6600c546116b8670de0b6b3a76400006116aa60065461169c60085461168e611609565b61172490919063ffffffff16565b61177490919063ffffffff16565b61177490919063ffffffff16565b6117e490919063ffffffff16565b60095461183a90919063ffffffff16565b90505b90565b600360009054906101000a900473ffffffffffffffffffffffffffffffffffffffff1681565b60095481565b60055481565b600063f23a6e6160e01b905095945050505050565b600082821115611769576040517f08c379a000000000000000000000000000000000000000000000000000000000815260040161176090612837565b60405180910390fd5b818303905092915050565b60008083141561178757600090506117de565b600082840290508284828161179857fe5b04146117d9576040517f08c379a00000000000000000000000000000000000000000000000000000000081526004016117d0906128b7565b60405180910390fd5b809150505b92915050565b6000808211611828576040517f08c379a000000000000000000000000000000000000000000000000000000000815260040161181f90612877565b60405180910390fd5b81838161183157fe5b04905092915050565b600080828401905083811015611885576040517f08c379a000000000000000000000000000000000000000000000000000000000815260040161187c90612817565b60405180910390fd5b8091505092915050565b6119108363a9059cbb60e01b84846040516024016118ae929190612740565b604051602081830303815290604052907bffffffffffffffffffffffffffffffffffffffffffffffffffffffff19166020820180517bffffffffffffffffffffffffffffffffffffffffffffffffffffffff838183161783525050505061192e565b505050565b60008183106119245781611926565b825b905092915050565b6060611990826040518060400160405280602081526020017f5361666545524332303a206c6f772d6c6576656c2063616c6c206661696c65648152508573ffffffffffffffffffffffffffffffffffffffff166119f59092919063ffffffff16565b90506000815111156119f057808060200190518101906119b09190611eec565b6119ef576040517f08c379a00000000000000000000000000000000000000000000000000000000081526004016119e690612937565b60405180910390fd5b5b505050565b6060611a048484600085611a0d565b90509392505050565b606082471015611a52576040517f08c379a0000000000000000000000000000000000000000000000000000000008152600401611a4990612857565b60405180910390fd5b611a5b85611b22565b611a9a576040517f08c379a0000000000000000000000000000000000000000000000000000000008152600401611a91906128f7565b60405180910390fd5b600060608673ffffffffffffffffffffffffffffffffffffffff168587604051611ac49190612658565b60006040518083038185875af1925050503d8060008114611b01576040519150601f19603f3d011682016040523d82523d6000602084013e611b06565b606091505b5091509150611b16828286611b35565b92505050949350505050565b600080823b905060008111915050919050565b60608315611b4557829050611b95565b600083511115611b585782518084602001fd5b816040517f08c379a0000000000000000000000000000000000000000000000000000000008152600401611b8c91906127d5565b60405180910390fd5b9392505050565b600081359050611bab81612bdb565b92915050565b600082601f830112611bc257600080fd5b8135611bd5611bd0826129ff565b6129d2565b91508181835260208401935060208101905083856020840282011115611bfa57600080fd5b60005b83811015611c2a5781611c108882611cfc565b845260208401935060208301925050600181019050611bfd565b5050505092915050565b600081519050611c4381612bf2565b92915050565b600081359050611c5881612c09565b92915050565b60008083601f840112611c7057600080fd5b8235905067ffffffffffffffff811115611c8957600080fd5b602083019150836001820283011115611ca157600080fd5b9250929050565b600082601f830112611cb957600080fd5b8135611ccc611cc782612a27565b6129d2565b91508082526020830160208301858383011115611ce857600080fd5b611cf3838284612b88565b50505092915050565b600081359050611d0b81612c20565b92915050565b600081519050611d2081612c20565b92915050565b600060208284031215611d3857600080fd5b6000611d4684828501611b9c565b91505092915050565b600080600080600060a08688031215611d6757600080fd5b6000611d7588828901611b9c565b9550506020611d8688828901611b9c565b945050604086013567ffffffffffffffff811115611da357600080fd5b611daf88828901611bb1565b935050606086013567ffffffffffffffff811115611dcc57600080fd5b611dd888828901611bb1565b925050608086013567ffffffffffffffff811115611df557600080fd5b611e0188828901611ca8565b9150509295509295909350565b600080600060608486031215611e2357600080fd5b6000611e3186828701611b9c565b9350506020611e4286828701611b9c565b9250506040611e5386828701611cfc565b9150509250925092565b600080600080600060a08688031215611e7557600080fd5b6000611e8388828901611b9c565b9550506020611e9488828901611b9c565b9450506040611ea588828901611cfc565b9350506060611eb688828901611cfc565b925050608086013567ffffffffffffffff811115611ed357600080fd5b611edf88828901611ca8565b9150509295509295909350565b600060208284031215611efe57600080fd5b6000611f0c84828501611c34565b91505092915050565b600060208284031215611f2757600080fd5b6000611f3584828501611c49565b91505092915050565b600060208284031215611f5057600080fd5b6000611f5e84828501611cfc565b91505092915050565b600060208284031215611f7957600080fd5b6000611f8784828501611d11565b91505092915050565b600080600060408486031215611fa557600080fd5b6000611fb386828701611cfc565b935050602084013567ffffffffffffffff811115611fd057600080fd5b611fdc86828701611c5e565b92509250509250925092565b60008060008060608587031215611ffe57600080fd5b600061200c87828801611cfc565b945050602061201d87828801611cfc565b935050604085013567ffffffffffffffff81111561203a57600080fd5b61204687828801611c5e565b925092505092959194509250565b60008060006060848603121561206957600080fd5b600061207786828701611cfc565b935050602061208886828701611cfc565b925050604084013567ffffffffffffffff8111156120a557600080fd5b6120b186828701611ca8565b9150509250925092565b6120c481612b0a565b82525050565b6120d381612a96565b82525050565b6120e281612aa8565b82525050565b6120f181612ab4565b82525050565b60006121038385612a69565b9350612110838584612b88565b61211983612bca565b840190509392505050565b600061212f82612a53565b6121398185612a69565b9350612149818560208601612b97565b61215281612bca565b840191505092915050565b600061216882612a53565b6121728185612a7a565b9350612182818560208601612b97565b80840191505092915050565b61219781612b1c565b82525050565b6121a681612b40565b82525050565b60006121b782612a5e565b6121c18185612a85565b93506121d1818560208601612b97565b6121da81612bca565b840191505092915050565b60006121f2600e83612a85565b91507f43616e6e6f74207374616b6520300000000000000000000000000000000000006000830152602082019050919050565b6000612232601b83612a85565b91507f536166654d6174683a206164646974696f6e206f766572666c6f7700000000006000830152602082019050919050565b6000612272601e83612a85565b91507f536166654d6174683a207375627472616374696f6e206f766572666c6f7700006000830152602082019050919050565b60006122b2602683612a85565b91507f416464726573733a20696e73756666696369656e742062616c616e636520666f60008301527f722063616c6c00000000000000000000000000000000000000000000000000006020830152604082019050919050565b6000612318601a83612a85565b91507f536166654d6174683a206469766973696f6e206279207a65726f0000000000006000830152602082019050919050565b6000612358601183612a85565b91507f43616e6e6f7420776974686472617720300000000000000000000000000000006000830152602082019050919050565b6000612398602183612a85565b91507f536166654d6174683a206d756c7469706c69636174696f6e206f766572666c6f60008301527f77000000000000000000000000000000000000000000000000000000000000006020830152604082019050919050565b60006123fe601883612a85565b91507f50726f76696465642072657761726420746f6f206869676800000000000000006000830152602082019050919050565b600061243e601d83612a85565b91507f416464726573733a2063616c6c20746f206e6f6e2d636f6e74726163740000006000830152602082019050919050565b600061247e602a83612a85565b91507f43616c6c6572206973206e6f742052657761726473446973747269627574696f60008301527f6e20636f6e7472616374000000000000000000000000000000000000000000006020830152604082019050919050565b60006124e4602a83612a85565b91507f5361666545524332303a204552433230206f7065726174696f6e20646964206e60008301527f6f742073756363656564000000000000000000000000000000000000000000006020830152604082019050919050565b600061254a601f83612a85565b91507f5265656e7472616e637947756172643a207265656e7472616e742063616c6c006000830152602082019050919050565b600061258a602183612a85565b91507f43616e6e6f7420776974686472617720746865207374616b696e6720746f6b6560008301527f6e000000000000000000000000000000000000000000000000000000000000006020830152604082019050919050565b60006125f0602183612a85565b91507f43616e6e6f7420776974686472617720746865207265776172647320746f6b6560008301527f6e000000000000000000000000000000000000000000000000000000000000006020830152604082019050919050565b61265281612b00565b82525050565b6000612664828461215d565b915081905092915050565b600060208201905061268460008301846120ca565b92915050565b600060a08201905061269f60008301896120bb565b6126ac60208301886120ca565b6126b96040830187612649565b6126c66060830186612649565b81810360808301526126d98184866120f7565b9050979650505050505050565b600060a0820190506126fb60008301886120ca565b61270860208301876120bb565b6127156040830186612649565b6127226060830185612649565b81810360808301526127348184612124565b90509695505050505050565b600060408201905061275560008301856120ca565b6127626020830184612649565b9392505050565b600060208201905061277e60008301846120d9565b92915050565b600060208201905061279960008301846120e8565b92915050565b60006020820190506127b4600083018461218e565b92915050565b60006020820190506127cf600083018461219d565b92915050565b600060208201905081810360008301526127ef81846121ac565b905092915050565b60006020820190508181036000830152612810816121e5565b9050919050565b6000602082019050818103600083015261283081612225565b9050919050565b6000602082019050818103600083015261285081612265565b9050919050565b60006020820190508181036000830152612870816122a5565b9050919050565b600060208201905081810360008301526128908161230b565b9050919050565b600060208201905081810360008301526128b08161234b565b9050919050565b600060208201905081810360008301526128d08161238b565b9050919050565b600060208201905081810360008301526128f0816123f1565b9050919050565b6000602082019050818103600083015261291081612431565b9050919050565b6000602082019050818103600083015261293081612471565b9050919050565b60006020820190508181036000830152612950816124d7565b9050919050565b600060208201905081810360008301526129708161253d565b9050919050565b600060208201905081810360008301526129908161257d565b9050919050565b600060208201905081810360008301526129b0816125e3565b9050919050565b60006020820190506129cc6000830184612649565b92915050565b6000604051905081810181811067ffffffffffffffff821117156129f557600080fd5b8060405250919050565b600067ffffffffffffffff821115612a1657600080fd5b602082029050602081019050919050565b600067ffffffffffffffff821115612a3e57600080fd5b601f19601f8301169050602081019050919050565b600081519050919050565b600081519050919050565b600082825260208201905092915050565b600081905092915050565b600082825260208201905092915050565b6000612aa182612ae0565b9050919050565b60008115159050919050565b60007fffffffff0000000000000000000000000000000000000000000000000000000082169050919050565b600073ffffffffffffffffffffffffffffffffffffffff82169050919050565b6000819050919050565b6000612b1582612b64565b9050919050565b6000612b2782612b2e565b9050919050565b6000612b3982612ae0565b9050919050565b6000612b4b82612b52565b9050919050565b6000612b5d82612ae0565b9050919050565b6000612b6f82612b76565b9050919050565b6000612b8182612ae0565b9050919050565b82818337600083830152505050565b60005b83811015612bb5578082015181840152602081019050612b9a565b83811115612bc4576000848401525b50505050565b6000601f19601f8301169050919050565b612be481612a96565b8114612bef57600080fd5b50565b612bfb81612aa8565b8114612c0657600080fd5b50565b612c1281612ab4565b8114612c1d57600080fd5b50565b612c2981612b00565b8114612c3457600080fd5b5056fea2646970667358221220cfdca64ed8c4acfbe8d0e76c83fc8be70aeb84c832defb1537ba94c3a68824bf64736f6c63430006060033",
  "linkReferences": {},
  "deployedLinkReferences": {}
}